{
  "_format": "hh-sol-artifact-1",
  "contractName": "MyEpicNFT",
  "sourceName": "contracts/MyEpicNFT.sol",
  "abi": [
    {
      "inputs": [
        {
          "internalType": "uint256",
          "name": "_totalSupply",
          "type": "uint256"
        }
      ],
      "stateMutability": "nonpayable",
      "type": "constructor"
    },
    {
      "anonymous": false,
      "inputs": [
        {
          "indexed": true,
          "internalType": "address",
          "name": "owner",
          "type": "address"
        },
        {
          "indexed": true,
          "internalType": "address",
          "name": "approved",
          "type": "address"
        },
        {
          "indexed": true,
          "internalType": "uint256",
          "name": "tokenId",
          "type": "uint256"
        }
      ],
      "name": "Approval",
      "type": "event"
    },
    {
      "anonymous": false,
      "inputs": [
        {
          "indexed": true,
          "internalType": "address",
          "name": "owner",
          "type": "address"
        },
        {
          "indexed": true,
          "internalType": "address",
          "name": "operator",
          "type": "address"
        },
        {
          "indexed": false,
          "internalType": "bool",
          "name": "approved",
          "type": "bool"
        }
      ],
      "name": "ApprovalForAll",
      "type": "event"
    },
    {
      "anonymous": false,
      "inputs": [
        {
          "indexed": false,
          "internalType": "address",
          "name": "sender",
          "type": "address"
        },
        {
          "indexed": false,
          "internalType": "uint256",
          "name": "tokenId",
          "type": "uint256"
        }
      ],
      "name": "NewEpicNFTMinted",
      "type": "event"
    },
    {
      "anonymous": false,
      "inputs": [
        {
          "indexed": true,
          "internalType": "address",
          "name": "from",
          "type": "address"
        },
        {
          "indexed": true,
          "internalType": "address",
          "name": "to",
          "type": "address"
        },
        {
          "indexed": true,
          "internalType": "uint256",
          "name": "tokenId",
          "type": "uint256"
        }
      ],
      "name": "Transfer",
      "type": "event"
    },
    {
      "inputs": [
        {
          "internalType": "address",
          "name": "to",
          "type": "address"
        },
        {
          "internalType": "uint256",
          "name": "tokenId",
          "type": "uint256"
        }
      ],
      "name": "approve",
      "outputs": [],
      "stateMutability": "nonpayable",
      "type": "function"
    },
    {
      "inputs": [
        {
          "internalType": "address",
          "name": "owner",
          "type": "address"
        }
      ],
      "name": "balanceOf",
      "outputs": [
        {
          "internalType": "uint256",
          "name": "",
          "type": "uint256"
        }
      ],
      "stateMutability": "view",
      "type": "function"
    },
    {
      "inputs": [
        {
          "internalType": "uint256",
          "name": "tokenId",
          "type": "uint256"
        }
      ],
      "name": "getApproved",
      "outputs": [
        {
          "internalType": "address",
          "name": "",
          "type": "address"
        }
      ],
      "stateMutability": "view",
      "type": "function"
    },
    {
      "inputs": [],
      "name": "getTotalNFTsMintedSoFar",
      "outputs": [
        {
          "internalType": "uint256",
          "name": "",
          "type": "uint256"
        }
      ],
      "stateMutability": "view",
      "type": "function"
    },
    {
      "inputs": [
        {
          "internalType": "address",
          "name": "owner",
          "type": "address"
        },
        {
          "internalType": "address",
          "name": "operator",
          "type": "address"
        }
      ],
      "name": "isApprovedForAll",
      "outputs": [
        {
          "internalType": "bool",
          "name": "",
          "type": "bool"
        }
      ],
      "stateMutability": "view",
      "type": "function"
    },
    {
      "inputs": [],
      "name": "makeAnEpicNFT",
      "outputs": [],
      "stateMutability": "nonpayable",
      "type": "function"
    },
    {
      "inputs": [],
      "name": "name",
      "outputs": [
        {
          "internalType": "string",
          "name": "",
          "type": "string"
        }
      ],
      "stateMutability": "view",
      "type": "function"
    },
    {
      "inputs": [
        {
          "internalType": "uint256",
          "name": "tokenId",
          "type": "uint256"
        }
      ],
      "name": "ownerOf",
      "outputs": [
        {
          "internalType": "address",
          "name": "",
          "type": "address"
        }
      ],
      "stateMutability": "view",
      "type": "function"
    },
    {
      "inputs": [
        {
          "internalType": "uint256",
          "name": "tokenId",
          "type": "uint256"
        }
      ],
      "name": "pickRandomColor",
      "outputs": [
        {
          "internalType": "string",
          "name": "",
          "type": "string"
        }
      ],
      "stateMutability": "view",
      "type": "function"
    },
    {
      "inputs": [
        {
          "internalType": "uint256",
          "name": "tokenId",
          "type": "uint256"
        }
      ],
      "name": "pickRandomFirstWord",
      "outputs": [
        {
          "internalType": "string",
          "name": "",
          "type": "string"
        }
      ],
      "stateMutability": "view",
      "type": "function"
    },
    {
      "inputs": [
        {
          "internalType": "uint256",
          "name": "tokenId",
          "type": "uint256"
        }
      ],
      "name": "pickRandomSecondWord",
      "outputs": [
        {
          "internalType": "string",
          "name": "",
          "type": "string"
        }
      ],
      "stateMutability": "view",
      "type": "function"
    },
    {
      "inputs": [
        {
          "internalType": "uint256",
          "name": "tokenId",
          "type": "uint256"
        }
      ],
      "name": "pickRandomThirdWord",
      "outputs": [
        {
          "internalType": "string",
          "name": "",
          "type": "string"
        }
      ],
      "stateMutability": "view",
      "type": "function"
    },
    {
      "inputs": [
        {
          "internalType": "address",
          "name": "from",
          "type": "address"
        },
        {
          "internalType": "address",
          "name": "to",
          "type": "address"
        },
        {
          "internalType": "uint256",
          "name": "tokenId",
          "type": "uint256"
        }
      ],
      "name": "safeTransferFrom",
      "outputs": [],
      "stateMutability": "nonpayable",
      "type": "function"
    },
    {
      "inputs": [
        {
          "internalType": "address",
          "name": "from",
          "type": "address"
        },
        {
          "internalType": "address",
          "name": "to",
          "type": "address"
        },
        {
          "internalType": "uint256",
          "name": "tokenId",
          "type": "uint256"
        },
        {
          "internalType": "bytes",
          "name": "_data",
          "type": "bytes"
        }
      ],
      "name": "safeTransferFrom",
      "outputs": [],
      "stateMutability": "nonpayable",
      "type": "function"
    },
    {
      "inputs": [
        {
          "internalType": "address",
          "name": "operator",
          "type": "address"
        },
        {
          "internalType": "bool",
          "name": "approved",
          "type": "bool"
        }
      ],
      "name": "setApprovalForAll",
      "outputs": [],
      "stateMutability": "nonpayable",
      "type": "function"
    },
    {
      "inputs": [
        {
          "internalType": "bytes4",
          "name": "interfaceId",
          "type": "bytes4"
        }
      ],
      "name": "supportsInterface",
      "outputs": [
        {
          "internalType": "bool",
          "name": "",
          "type": "bool"
        }
      ],
      "stateMutability": "view",
      "type": "function"
    },
    {
      "inputs": [],
      "name": "symbol",
      "outputs": [
        {
          "internalType": "string",
          "name": "",
          "type": "string"
        }
      ],
      "stateMutability": "view",
      "type": "function"
    },
    {
      "inputs": [
        {
          "internalType": "uint256",
          "name": "tokenId",
          "type": "uint256"
        }
      ],
      "name": "tokenURI",
      "outputs": [
        {
          "internalType": "string",
          "name": "",
          "type": "string"
        }
      ],
      "stateMutability": "view",
      "type": "function"
    },
    {
      "inputs": [],
      "name": "totalSupply",
      "outputs": [
        {
          "internalType": "uint256",
          "name": "",
          "type": "uint256"
        }
      ],
      "stateMutability": "view",
      "type": "function"
    },
    {
      "inputs": [
        {
          "internalType": "address",
          "name": "from",
          "type": "address"
        },
        {
          "internalType": "address",
          "name": "to",
          "type": "address"
        },
        {
          "internalType": "uint256",
          "name": "tokenId",
          "type": "uint256"
        }
      ],
      "name": "transferFrom",
      "outputs": [],
      "stateMutability": "nonpayable",
      "type": "function"
    }
  ],
  "bytecode": "0x608060405260405180610100016040528060d381526020016200478860d39139600990805190602001906200003692919062000859565b506040518060800160405280605681526020016200485b60569139600a90805190602001906200006892919062000859565b506040518060c001604052806040518060400160405280600581526020017f4c7570696e00000000000000000000000000000000000000000000000000000081525081526020016040518060400160405280600681526020017f536e6f6f7079000000000000000000000000000000000000000000000000000081525081526020016040518060400160405280600b81526020017f446f6e616c64204475636b00000000000000000000000000000000000000000081525081526020016040518060400160405280600a81526020017f46617420416c626572740000000000000000000000000000000000000000000081525081526020016040518060400160405280600481526020017f596f64610000000000000000000000000000000000000000000000000000000081525081526020016040518060400160405280600781526020017f526f626f636f7000000000000000000000000000000000000000000000000000815250815250600b906006620001e6929190620008ea565b506040518060c001604052806040518060400160405280600581526020017f4c6f76657300000000000000000000000000000000000000000000000000000081525081526020016040518060400160405280600581526020017f486174657300000000000000000000000000000000000000000000000000000081525081526020016040518060400160405280600681526020017f466f72636573000000000000000000000000000000000000000000000000000081525081526020016040518060400160405280600581526020017f506f6b657300000000000000000000000000000000000000000000000000000081525081526020016040518060400160405280600481526020017f527562730000000000000000000000000000000000000000000000000000000081525081526020016040518060400160405280600581526020017f4472616773000000000000000000000000000000000000000000000000000000815250815250600c90600662000364929190620008ea565b506040518060c001604052806040518060400160405280600781526020017f42616e616e61730000000000000000000000000000000000000000000000000081525081526020016040518060400160405280600681526020017f41486f727365000000000000000000000000000000000000000000000000000081525081526020016040518060400160405280600581526020017f41426f6d6200000000000000000000000000000000000000000000000000000081525081526020016040518060400160405280600781526020017f4d6f6e6b6579730000000000000000000000000000000000000000000000000081525081526020016040518060400160405280600881526020017f546865506172747900000000000000000000000000000000000000000000000081525081526020016040518060400160405280600981526020017f4d6f756e7461696e730000000000000000000000000000000000000000000000815250815250600d906006620004e2929190620008ea565b506040518060c001604052806040518060400160405280600381526020017f726564000000000000000000000000000000000000000000000000000000000081525081526020016040518060400160405280600781526020017f233038433241380000000000000000000000000000000000000000000000000081525081526020016040518060400160405280600581526020017f626c61636b00000000000000000000000000000000000000000000000000000081525081526020016040518060400160405280600681526020017f79656c6c6f77000000000000000000000000000000000000000000000000000081525081526020016040518060400160405280600481526020017f626c75650000000000000000000000000000000000000000000000000000000081525081526020016040518060400160405280600581526020017f677265656e000000000000000000000000000000000000000000000000000000815250815250600e90600662000660929190620008ea565b503480156200066e57600080fd5b50604051620048b1380380620048b18339818101604052810190620006949190620009f5565b6040518060400160405280600981526020017f5371756172654e465400000000000000000000000000000000000000000000008152506040518060400160405280600681526020017f535155415245000000000000000000000000000000000000000000000000000081525081600090805190602001906200071892919062000859565b5080600190805190602001906200073192919062000859565b5050506200077f6040518060400160405280601e81526020017f54686973206973206d79204e465420636f6e74726163742e20576f61682100008152506200078d60201b620012f61760201c565b806008819055505062000b72565b6200082d81604051602401620007a4919062000a62565b6040516020818303038152906040527f41304fac000000000000000000000000000000000000000000000000000000007bffffffffffffffffffffffffffffffffffffffffffffffffffffffff19166020820180517bffffffffffffffffffffffffffffffffffffffffffffffffffffffff83818316178352505050506200083060201b60201c565b50565b60008151905060006a636f6e736f6c652e6c6f679050602083016000808483855afa5050505050565b828054620008679062000ae2565b90600052602060002090601f0160209004810192826200088b5760008555620008d7565b82601f10620008a657805160ff1916838001178555620008d7565b82800160010185558215620008d7579182015b82811115620008d6578251825591602001919060010190620008b9565b5b509050620008e6919062000951565b5090565b8280548282559060005260206000209081019282156200093e579160200282015b828111156200093d5782518290805190602001906200092c92919062000859565b50916020019190600101906200090b565b5b5090506200094d919062000970565b5090565b5b808211156200096c57600081600090555060010162000952565b5090565b5b808211156200099457600081816200098a919062000998565b5060010162000971565b5090565b508054620009a69062000ae2565b6000825580601f10620009ba5750620009db565b601f016020900490600052602060002090810190620009da919062000951565b5b50565b600081519050620009ef8162000b58565b92915050565b60006020828403121562000a0857600080fd5b600062000a1884828501620009de565b91505092915050565b600062000a2e8262000a86565b62000a3a818562000a91565b935062000a4c81856020860162000aac565b62000a578162000b47565b840191505092915050565b6000602082019050818103600083015262000a7e818462000a21565b905092915050565b600081519050919050565b600082825260208201905092915050565b6000819050919050565b60005b8381101562000acc57808201518184015260208101905062000aaf565b8381111562000adc576000848401525b50505050565b6000600282049050600182168062000afb57607f821691505b6020821081141562000b125762000b1162000b18565b5b50919050565b7f4e487b7100000000000000000000000000000000000000000000000000000000600052602260045260246000fd5b6000601f19601f8301169050919050565b62000b638162000aa2565b811462000b6f57600080fd5b50565b613c068062000b826000396000f3fe608060405234801561001057600080fd5b506004361061012c5760003560e01c80636352211e116100ad578063b88d4fde11610071578063b88d4fde14610369578063c575757a14610385578063c87b56dd146103b5578063de9d132f146103e5578063e985e9c5146103ef5761012c565b80636352211e1461029f57806370a08231146102cf57806395d89b41146102ff578063a22cb4651461031d578063b187301f146103395761012c565b806318160ddd116100f457806318160ddd146101e957806323b872dd146102075780632de38d681461022357806342842e0e14610253578063514dc8c61461026f5761012c565b806301ffc9a714610131578063060475901461016157806306fdde031461017f578063081812fc1461019d578063095ea7b3146101cd575b600080fd5b61014b600480360381019061014691906126f6565b61041f565b604051610158919061345c565b60405180910390f35b610169610501565b60405161017691906136f7565b60405180910390f35b610187610512565b6040516101949190613477565b60405180910390f35b6101b760048036038101906101b29190612748565b6105a4565b6040516101c491906133cc565b60405180910390f35b6101e760048036038101906101e291906126ba565b610629565b005b6101f1610741565b6040516101fe91906136f7565b60405180910390f35b610221600480360381019061021c91906125b4565b610747565b005b61023d60048036038101906102389190612748565b6107a7565b60405161024a9190613477565b60405180910390f35b61026d600480360381019061026891906125b4565b6108c5565b005b61028960048036038101906102849190612748565b6108e5565b6040516102969190613477565b60405180910390f35b6102b960048036038101906102b49190612748565b610a03565b6040516102c691906133cc565b60405180910390f35b6102e960048036038101906102e4919061254f565b610ab5565b6040516102f691906136f7565b60405180910390f35b610307610b6d565b6040516103149190613477565b60405180910390f35b6103376004803603810190610332919061267e565b610bff565b005b610353600480360381019061034e9190612748565b610c15565b6040516103609190613477565b60405180910390f35b610383600480360381019061037e9190612603565b610d33565b005b61039f600480360381019061039a9190612748565b610d95565b6040516103ac9190613477565b60405180910390f35b6103cf60048036038101906103ca9190612748565b610eb3565b6040516103dc9190613477565b60405180910390f35b6103ed611005565b005b61040960048036038101906104049190612578565b611262565b604051610416919061345c565b60405180910390f35b60007f80ac58cd000000000000000000000000000000000000000000000000000000007bffffffffffffffffffffffffffffffffffffffffffffffffffffffff1916827bffffffffffffffffffffffffffffffffffffffffffffffffffffffff191614806104ea57507f5b5e139f000000000000000000000000000000000000000000000000000000007bffffffffffffffffffffffffffffffffffffffffffffffffffffffff1916827bffffffffffffffffffffffffffffffffffffffffffffffffffffffff1916145b806104fa57506104f98261138f565b5b9050919050565b600061050d60076113f9565b905090565b60606000805461052190613996565b80601f016020809104026020016040519081016040528092919081815260200182805461054d90613996565b801561059a5780601f1061056f5761010080835404028352916020019161059a565b820191906000526020600020905b81548152906001019060200180831161057d57829003601f168201915b5050505050905090565b60006105af82611407565b6105ee576040517f08c379a00000000000000000000000000000000000000000000000000000000081526004016105e590613657565b60405180910390fd5b6004600083815260200190815260200160002060009054906101000a900473ffffffffffffffffffffffffffffffffffffffff169050919050565b600061063482610a03565b90508073ffffffffffffffffffffffffffffffffffffffff168373ffffffffffffffffffffffffffffffffffffffff1614156106a5576040517f08c379a000000000000000000000000000000000000000000000000000000000815260040161069c906136b7565b60405180910390fd5b8073ffffffffffffffffffffffffffffffffffffffff166106c4611473565b73ffffffffffffffffffffffffffffffffffffffff1614806106f357506106f2816106ed611473565b611262565b5b610732576040517f08c379a000000000000000000000000000000000000000000000000000000000815260040161072990613597565b60405180910390fd5b61073c838361147b565b505050565b60085481565b610758610752611473565b82611534565b610797576040517f08c379a000000000000000000000000000000000000000000000000000000000815260040161078e906136d7565b60405180910390fd5b6107a2838383611612565b505050565b606060006107db6107b78461186e565b6040516020016107c79190613366565b604051602081830303815290604052611a1b565b9050600b80549050816107ee9190613a11565b9050600b818154811061082a577f4e487b7100000000000000000000000000000000000000000000000000000000600052603260045260246000fd5b90600052602060002001805461083f90613996565b80601f016020809104026020016040519081016040528092919081815260200182805461086b90613996565b80156108b85780601f1061088d576101008083540402835291602001916108b8565b820191906000526020600020905b81548152906001019060200180831161089b57829003601f168201915b5050505050915050919050565b6108e083838360405180602001604052806000815250610d33565b505050565b606060006109196108f58461186e565b60405160200161090591906133aa565b604051602081830303815290604052611a1b565b9050600e805490508161092c9190613a11565b9050600e8181548110610968577f4e487b7100000000000000000000000000000000000000000000000000000000600052603260045260246000fd5b90600052602060002001805461097d90613996565b80601f01602080910402602001604051908101604052809291908181526020018280546109a990613996565b80156109f65780601f106109cb576101008083540402835291602001916109f6565b820191906000526020600020905b8154815290600101906020018083116109d957829003601f168201915b5050505050915050919050565b6000806002600084815260200190815260200160002060009054906101000a900473ffffffffffffffffffffffffffffffffffffffff169050600073ffffffffffffffffffffffffffffffffffffffff168173ffffffffffffffffffffffffffffffffffffffff161415610aac576040517f08c379a0000000000000000000000000000000000000000000000000000000008152600401610aa3906135d7565b60405180910390fd5b80915050919050565b60008073ffffffffffffffffffffffffffffffffffffffff168273ffffffffffffffffffffffffffffffffffffffff161415610b26576040517f08c379a0000000000000000000000000000000000000000000000000000000008152600401610b1d906135b7565b60405180910390fd5b600360008373ffffffffffffffffffffffffffffffffffffffff1673ffffffffffffffffffffffffffffffffffffffff168152602001908152602001600020549050919050565b606060018054610b7c90613996565b80601f0160208091040260200160405190810160405280929190818152602001828054610ba890613996565b8015610bf55780601f10610bca57610100808354040283529160200191610bf5565b820191906000526020600020905b815481529060010190602001808311610bd857829003601f168201915b5050505050905090565b610c11610c0a611473565b8383611a4e565b5050565b60606000610c49610c258461186e565b604051602001610c3591906132ff565b604051602081830303815290604052611a1b565b9050600c8054905081610c5c9190613a11565b9050600c8181548110610c98577f4e487b7100000000000000000000000000000000000000000000000000000000600052603260045260246000fd5b906000526020600020018054610cad90613996565b80601f0160208091040260200160405190810160405280929190818152602001828054610cd990613996565b8015610d265780601f10610cfb57610100808354040283529160200191610d26565b820191906000526020600020905b815481529060010190602001808311610d0957829003601f168201915b5050505050915050919050565b610d44610d3e611473565b83611534565b610d83576040517f08c379a0000000000000000000000000000000000000000000000000000000008152600401610d7a906136d7565b60405180910390fd5b610d8f84848484611bbb565b50505050565b60606000610dc9610da58461186e565b604051602001610db591906132dd565b604051602081830303815290604052611a1b565b9050600d8054905081610ddc9190613a11565b9050600d8181548110610e18577f4e487b7100000000000000000000000000000000000000000000000000000000600052603260045260246000fd5b906000526020600020018054610e2d90613996565b80601f0160208091040260200160405190810160405280929190818152602001828054610e5990613996565b8015610ea65780601f10610e7b57610100808354040283529160200191610ea6565b820191906000526020600020905b815481529060010190602001808311610e8957829003601f168201915b5050505050915050919050565b6060610ebe82611407565b610efd576040517f08c379a0000000000000000000000000000000000000000000000000000000008152600401610ef490613637565b60405180910390fd5b6000600660008481526020019081526020016000208054610f1d90613996565b80601f0160208091040260200160405190810160405280929190818152602001828054610f4990613996565b8015610f965780601f10610f6b57610100808354040283529160200191610f96565b820191906000526020600020905b815481529060010190602001808311610f7957829003601f168201915b505050505090506000610fa7611c17565b9050600081511415610fbd578192505050611000565b600082511115610ff2578082604051602001610fda92919061321d565b60405160208183030381529060405292505050611000565b610ffb84611c2e565b925050505b919050565b600061101160076113f9565b90506008548110611057576040517f08c379a000000000000000000000000000000000000000000000000000000000815260040161104e90613577565b60405180910390fd5b6000611062826107a7565b9050600061106f83610c15565b9050600061107c84610d95565b9050600083838360405160200161109593929190613241565b604051602081830303815290604052905060006110b1866108e5565b90506000600982600a856040516020016110ce9493929190613272565b60405160208183030381529060405290506000611113846110ee84611cd5565b6040516020016110ff929190613321565b604051602081830303815290604052611cd5565b90506000816040516020016111289190613388565b60405160208183030381529060405290506111776040518060400160405280601581526020017f0a2d2d2d2d2d2d2d2d2d2d2d2d2d2d2d2d2d2d2d2d00000000000000000000008152506112f6565b61119f8160405160200161118b91906132bb565b6040516020818303038152906040526112f6565b6111dd6040518060400160405280601581526020017f2d2d2d2d2d2d2d2d2d2d2d2d2d2d2d2d2d2d2d2d0a00000000000000000000008152506112f6565b6111e7338a611e93565b6111f18982611eb1565b6111fb6007611f25565b61121e604051806060016040528060258152602001613b6c602591398a33611f3b565b7febb98688741ffa4c7589bf325de30cf7becb63de567842e1ccdb6cb949fdc82c338a60405161124f929190613433565b60405180910390a1505050505050505050565b6000600560008473ffffffffffffffffffffffffffffffffffffffff1673ffffffffffffffffffffffffffffffffffffffff16815260200190815260200160002060008373ffffffffffffffffffffffffffffffffffffffff1673ffffffffffffffffffffffffffffffffffffffff16815260200190815260200160002060009054906101000a900460ff16905092915050565b61138c8160405160240161130a9190613477565b6040516020818303038152906040527f41304fac000000000000000000000000000000000000000000000000000000007bffffffffffffffffffffffffffffffffffffffffffffffffffffffff19166020820180517bffffffffffffffffffffffffffffffffffffffffffffffffffffffff8381831617835250505050611fda565b50565b60007f01ffc9a7000000000000000000000000000000000000000000000000000000007bffffffffffffffffffffffffffffffffffffffffffffffffffffffff1916827bffffffffffffffffffffffffffffffffffffffffffffffffffffffff1916149050919050565b600081600001549050919050565b60008073ffffffffffffffffffffffffffffffffffffffff166002600084815260200190815260200160002060009054906101000a900473ffffffffffffffffffffffffffffffffffffffff1673ffffffffffffffffffffffffffffffffffffffff1614159050919050565b600033905090565b816004600083815260200190815260200160002060006101000a81548173ffffffffffffffffffffffffffffffffffffffff021916908373ffffffffffffffffffffffffffffffffffffffff160217905550808273ffffffffffffffffffffffffffffffffffffffff166114ee83610a03565b73ffffffffffffffffffffffffffffffffffffffff167f8c5be1e5ebec7d5bd14f71427d1e84f3dd0314c0f7b2291e5b200ac8c7c3b92560405160405180910390a45050565b600061153f82611407565b61157e576040517f08c379a000000000000000000000000000000000000000000000000000000000815260040161157590613557565b60405180910390fd5b600061158983610a03565b90508073ffffffffffffffffffffffffffffffffffffffff168473ffffffffffffffffffffffffffffffffffffffff1614806115f857508373ffffffffffffffffffffffffffffffffffffffff166115e0846105a4565b73ffffffffffffffffffffffffffffffffffffffff16145b8061160957506116088185611262565b5b91505092915050565b8273ffffffffffffffffffffffffffffffffffffffff1661163282610a03565b73ffffffffffffffffffffffffffffffffffffffff1614611688576040517f08c379a000000000000000000000000000000000000000000000000000000000815260040161167f90613677565b60405180910390fd5b600073ffffffffffffffffffffffffffffffffffffffff168273ffffffffffffffffffffffffffffffffffffffff1614156116f8576040517f08c379a00000000000000000000000000000000000000000000000000000000081526004016116ef90613517565b60405180910390fd5b611703838383612003565b61170e60008261147b565b6001600360008573ffffffffffffffffffffffffffffffffffffffff1673ffffffffffffffffffffffffffffffffffffffff168152602001908152602001600020600082825461175e91906138ac565b925050819055506001600360008473ffffffffffffffffffffffffffffffffffffffff1673ffffffffffffffffffffffffffffffffffffffff16815260200190815260200160002060008282546117b591906137cb565b92505081905550816002600083815260200190815260200160002060006101000a81548173ffffffffffffffffffffffffffffffffffffffff021916908373ffffffffffffffffffffffffffffffffffffffff160217905550808273ffffffffffffffffffffffffffffffffffffffff168473ffffffffffffffffffffffffffffffffffffffff167fddf252ad1be2c89b69c2b068fc378daa952ba7f163c4a11628f55a4df523b3ef60405160405180910390a4505050565b606060008214156118b6576040518060400160405280600181526020017f30000000000000000000000000000000000000000000000000000000000000008152509050611a16565b600082905060005b600082146118e85780806118d1906139c8565b915050600a826118e19190613821565b91506118be565b60008167ffffffffffffffff81111561192a577f4e487b7100000000000000000000000000000000000000000000000000000000600052604160045260246000fd5b6040519080825280601f01601f19166020018201604052801561195c5781602001600182028036833780820191505090505b5090505b60008514611a0f5760018261197591906138ac565b9150600a856119849190613a11565b603061199091906137cb565b60f81b8183815181106119cc577f4e487b7100000000000000000000000000000000000000000000000000000000600052603260045260246000fd5b60200101907effffffffffffffffffffffffffffffffffffffffffffffffffffffffffffff1916908160001a905350600a85611a089190613821565b9450611960565b8093505050505b919050565b600081604051602001611a2e9190613206565b6040516020818303038152906040528051906020012060001c9050919050565b8173ffffffffffffffffffffffffffffffffffffffff168373ffffffffffffffffffffffffffffffffffffffff161415611abd576040517f08c379a0000000000000000000000000000000000000000000000000000000008152600401611ab490613537565b60405180910390fd5b80600560008573ffffffffffffffffffffffffffffffffffffffff1673ffffffffffffffffffffffffffffffffffffffff16815260200190815260200160002060008473ffffffffffffffffffffffffffffffffffffffff1673ffffffffffffffffffffffffffffffffffffffff16815260200190815260200160002060006101000a81548160ff0219169083151502179055508173ffffffffffffffffffffffffffffffffffffffff168373ffffffffffffffffffffffffffffffffffffffff167f17307eab39ab6107e8899845ad3d59bd9653f200f220920489ca2b5937696c3183604051611bae919061345c565b60405180910390a3505050565b611bc6848484611612565b611bd284848484612008565b611c11576040517f08c379a0000000000000000000000000000000000000000000000000000000008152600401611c08906134d7565b60405180910390fd5b50505050565b606060405180602001604052806000815250905090565b6060611c3982611407565b611c78576040517f08c379a0000000000000000000000000000000000000000000000000000000008152600401611c6f90613697565b60405180910390fd5b6000611c82611c17565b90506000815111611ca25760405180602001604052806000815250611ccd565b80611cac8461186e565b604051602001611cbd92919061321d565b6040516020818303038152906040525b915050919050565b60606000825190506000811415611cfe5760405180602001604052806000815250915050611e8e565b60006003600283611d0f91906137cb565b611d199190613821565b6004611d259190613852565b90506000602082611d3691906137cb565b67ffffffffffffffff811115611d75577f4e487b7100000000000000000000000000000000000000000000000000000000600052604160045260246000fd5b6040519080825280601f01601f191660200182016040528015611da75781602001600182028036833780820191505090505b5090506000604051806060016040528060408152602001613b91604091399050600181016020830160005b86811015611e4b5760038101905062ffffff818a015116603f8160121c168401518060081b905060ff603f83600c1c1686015116810190508060081b905060ff603f8360061c1686015116810190508060081b905060ff603f831686015116810190508060e01b90508084526004840193505050611dd2565b506003860660018114611e655760028114611e7557611e80565b613d3d60f01b6002830352611e80565b603d60f81b60018303525b508484525050819450505050505b919050565b611ead82826040518060200160405280600081525061219f565b5050565b611eba82611407565b611ef9576040517f08c379a0000000000000000000000000000000000000000000000000000000008152600401611ef0906135f7565b60405180910390fd5b80600660008481526020019081526020016000209080519060200190611f209291906123db565b505050565b6001816000016000828254019250508190555050565b611fd5838383604051602401611f5393929190613499565b6040516020818303038152906040527fe3849f79000000000000000000000000000000000000000000000000000000007bffffffffffffffffffffffffffffffffffffffffffffffffffffffff19166020820180517bffffffffffffffffffffffffffffffffffffffffffffffffffffffff8381831617835250505050611fda565b505050565b60008151905060006a636f6e736f6c652e6c6f679050602083016000808483855afa5050505050565b505050565b60006120298473ffffffffffffffffffffffffffffffffffffffff166121fa565b15612192578373ffffffffffffffffffffffffffffffffffffffff1663150b7a02612052611473565b8786866040518563ffffffff1660e01b815260040161207494939291906133e7565b602060405180830381600087803b15801561208e57600080fd5b505af19250505080156120bf57506040513d601f19601f820116820180604052508101906120bc919061271f565b60015b612142573d80600081146120ef576040519150601f19603f3d011682016040523d82523d6000602084013e6120f4565b606091505b5060008151141561213a576040517f08c379a0000000000000000000000000000000000000000000000000000000008152600401612131906134d7565b60405180910390fd5b805181602001fd5b63150b7a0260e01b7bffffffffffffffffffffffffffffffffffffffffffffffffffffffff1916817bffffffffffffffffffffffffffffffffffffffffffffffffffffffff191614915050612197565b600190505b949350505050565b6121a9838361220d565b6121b66000848484612008565b6121f5576040517f08c379a00000000000000000000000000000000000000000000000000000000081526004016121ec906134d7565b60405180910390fd5b505050565b600080823b905060008111915050919050565b600073ffffffffffffffffffffffffffffffffffffffff168273ffffffffffffffffffffffffffffffffffffffff16141561227d576040517f08c379a000000000000000000000000000000000000000000000000000000000815260040161227490613617565b60405180910390fd5b61228681611407565b156122c6576040517f08c379a00000000000000000000000000000000000000000000000000000000081526004016122bd906134f7565b60405180910390fd5b6122d260008383612003565b6001600360008473ffffffffffffffffffffffffffffffffffffffff1673ffffffffffffffffffffffffffffffffffffffff168152602001908152602001600020600082825461232291906137cb565b92505081905550816002600083815260200190815260200160002060006101000a81548173ffffffffffffffffffffffffffffffffffffffff021916908373ffffffffffffffffffffffffffffffffffffffff160217905550808273ffffffffffffffffffffffffffffffffffffffff16600073ffffffffffffffffffffffffffffffffffffffff167fddf252ad1be2c89b69c2b068fc378daa952ba7f163c4a11628f55a4df523b3ef60405160405180910390a45050565b8280546123e790613996565b90600052602060002090601f0160209004810192826124095760008555612450565b82601f1061242257805160ff1916838001178555612450565b82800160010185558215612450579182015b8281111561244f578251825591602001919060010190612434565b5b50905061245d9190612461565b5090565b5b8082111561247a576000816000905550600101612462565b5090565b600061249161248c84613743565b613712565b9050828152602081018484840111156124a957600080fd5b6124b4848285613954565b509392505050565b6000813590506124cb81613b0f565b92915050565b6000813590506124e081613b26565b92915050565b6000813590506124f581613b3d565b92915050565b60008151905061250a81613b3d565b92915050565b600082601f83011261252157600080fd5b813561253184826020860161247e565b91505092915050565b60008135905061254981613b54565b92915050565b60006020828403121561256157600080fd5b600061256f848285016124bc565b91505092915050565b6000806040838503121561258b57600080fd5b6000612599858286016124bc565b92505060206125aa858286016124bc565b9150509250929050565b6000806000606084860312156125c957600080fd5b60006125d7868287016124bc565b93505060206125e8868287016124bc565b92505060406125f98682870161253a565b9150509250925092565b6000806000806080858703121561261957600080fd5b6000612627878288016124bc565b9450506020612638878288016124bc565b93505060406126498782880161253a565b925050606085013567ffffffffffffffff81111561266657600080fd5b61267287828801612510565b91505092959194509250565b6000806040838503121561269157600080fd5b600061269f858286016124bc565b92505060206126b0858286016124d1565b9150509250929050565b600080604083850312156126cd57600080fd5b60006126db858286016124bc565b92505060206126ec8582860161253a565b9150509250929050565b60006020828403121561270857600080fd5b6000612716848285016124e6565b91505092915050565b60006020828403121561273157600080fd5b600061273f848285016124fb565b91505092915050565b60006020828403121561275a57600080fd5b60006127688482850161253a565b91505092915050565b61277a816138e0565b82525050565b612789816138f2565b82525050565b600061279a82613788565b6127a4818561379e565b93506127b4818560208601613963565b6127bd81613afe565b840191505092915050565b60006127d382613793565b6127dd81856137af565b93506127ed818560208601613963565b6127f681613afe565b840191505092915050565b600061280c82613793565b61281681856137c0565b9350612826818560208601613963565b80840191505092915050565b6000815461283f81613996565b61284981866137c0565b945060018216600081146128645760018114612875576128a8565b60ff198316865281860193506128a8565b61287e85613773565b60005b838110156128a057815481890152600182019150602081019050612881565b838801955050505b50505092915050565b60006128be6025836137c0565b91507f68747470733a2f2f6e6674707265766965772e30786465762e636f6465732f3f60008301527f636f64653d0000000000000000000000000000000000000000000000000000006020830152602582019050919050565b60006129246032836137af565b91507f4552433732313a207472616e7366657220746f206e6f6e20455243373231526560008301527f63656976657220696d706c656d656e74657200000000000000000000000000006020830152604082019050919050565b600061298a601c836137af565b91507f4552433732313a20746f6b656e20616c7265616479206d696e746564000000006000830152602082019050919050565b60006129ca600a836137c0565b91507f54484952445f574f5244000000000000000000000000000000000000000000006000830152600a82019050919050565b6000612a0a6024836137af565b91507f4552433732313a207472616e7366657220746f20746865207a65726f2061646460008301527f72657373000000000000000000000000000000000000000000000000000000006020830152604082019050919050565b6000612a706019836137af565b91507f4552433732313a20617070726f766520746f2063616c6c6572000000000000006000830152602082019050919050565b6000612ab0600b836137c0565b91507f5345434f4e445f574f52440000000000000000000000000000000000000000006000830152600b82019050919050565b6000612af0602c836137af565b91507f4552433732313a206f70657261746f7220717565727920666f72206e6f6e657860008301527f697374656e7420746f6b656e00000000000000000000000000000000000000006020830152604082019050919050565b6000612b566012836137af565b91507f5765277265206f7574206f66204e4654732100000000000000000000000000006000830152602082019050919050565b6000612b96600d836137c0565b91507f3c2f746578743e3c2f7376673e000000000000000000000000000000000000006000830152600d82019050919050565b6000612bd66038836137af565b91507f4552433732313a20617070726f76652063616c6c6572206973206e6f74206f7760008301527f6e6572206e6f7220617070726f76656420666f7220616c6c00000000000000006020830152604082019050919050565b6000612c3c602a836137af565b91507f4552433732313a2062616c616e636520717565727920666f7220746865207a6560008301527f726f2061646472657373000000000000000000000000000000000000000000006020830152604082019050919050565b6000612ca26029836137af565b91507f4552433732313a206f776e657220717565727920666f72206e6f6e657869737460008301527f656e7420746f6b656e00000000000000000000000000000000000000000000006020830152604082019050919050565b6000612d08602e836137af565b91507f45524337323155524953746f726167653a2055524920736574206f66206e6f6e60008301527f6578697374656e7420746f6b656e0000000000000000000000000000000000006020830152604082019050919050565b6000612d6e6002836137c0565b91507f227d0000000000000000000000000000000000000000000000000000000000006000830152600282019050919050565b6000612dae6020836137af565b91507f4552433732313a206d696e7420746f20746865207a65726f20616464726573736000830152602082019050919050565b6000612dee6031836137af565b91507f45524337323155524953746f726167653a2055524920717565727920666f722060008301527f6e6f6e6578697374656e7420746f6b656e0000000000000000000000000000006020830152604082019050919050565b6000612e54602c836137af565b91507f4552433732313a20617070726f76656420717565727920666f72206e6f6e657860008301527f697374656e7420746f6b656e00000000000000000000000000000000000000006020830152604082019050919050565b6000612eba6029836137af565b91507f4552433732313a207472616e73666572206f6620746f6b656e2074686174206960008301527f73206e6f74206f776e00000000000000000000000000000000000000000000006020830152604082019050919050565b6000612f20602f836137af565b91507f4552433732314d657461646174613a2055524920717565727920666f72206e6f60008301527f6e6578697374656e7420746f6b656e00000000000000000000000000000000006020830152604082019050919050565b6000612f86600a836137c0565b91507f7b226e616d65223a2022000000000000000000000000000000000000000000006000830152600a82019050919050565b6000612fc66021836137af565b91507f4552433732313a20617070726f76616c20746f2063757272656e74206f776e6560008301527f72000000000000000000000000000000000000000000000000000000000000006020830152604082019050919050565b600061302c600a836137c0565b91507f46495253545f574f5244000000000000000000000000000000000000000000006000830152600a82019050919050565b600061306c601d836137c0565b91507f646174613a6170706c69636174696f6e2f6a736f6e3b6261736536342c0000006000830152601d82019050919050565b60006130ac606a836137c0565b91507f222c20226465736372697074696f6e223a20224120686967686c79206163636c60008301527f61696d656420636f6c6c656374696f6e206f6620636f6d62696e656420776f7260208301527f64732e222c2022696d616765223a2022646174613a696d6167652f7376672b7860408301527f6d6c3b6261736536342c000000000000000000000000000000000000000000006060830152606a82019050919050565b600061315e6031836137af565b91507f4552433732313a207472616e736665722063616c6c6572206973206e6f74206f60008301527f776e6572206e6f7220617070726f7665640000000000000000000000000000006020830152604082019050919050565b60006131c46005836137c0565b91507f434f4c4f520000000000000000000000000000000000000000000000000000006000830152600582019050919050565b6132008161394a565b82525050565b60006132128284612801565b915081905092915050565b60006132298285612801565b91506132358284612801565b91508190509392505050565b600061324d8286612801565b91506132598285612801565b91506132658284612801565b9150819050949350505050565b600061327e8287612832565b915061328a8286612801565b91506132968285612832565b91506132a28284612801565b91506132ad82612b89565b915081905095945050505050565b60006132c6826128b1565b91506132d28284612801565b915081905092915050565b60006132e8826129bd565b91506132f48284612801565b915081905092915050565b600061330a82612aa3565b91506133168284612801565b915081905092915050565b600061332c82612f79565b91506133388285612801565b91506133438261309f565b915061334f8284612801565b915061335a82612d61565b91508190509392505050565b60006133718261301f565b915061337d8284612801565b915081905092915050565b60006133938261305f565b915061339f8284612801565b915081905092915050565b60006133b5826131b7565b91506133c18284612801565b915081905092915050565b60006020820190506133e16000830184612771565b92915050565b60006080820190506133fc6000830187612771565b6134096020830186612771565b61341660408301856131f7565b8181036060830152613428818461278f565b905095945050505050565b60006040820190506134486000830185612771565b61345560208301846131f7565b9392505050565b60006020820190506134716000830184612780565b92915050565b6000602082019050818103600083015261349181846127c8565b905092915050565b600060608201905081810360008301526134b381866127c8565b90506134c260208301856131f7565b6134cf6040830184612771565b949350505050565b600060208201905081810360008301526134f081612917565b9050919050565b600060208201905081810360008301526135108161297d565b9050919050565b60006020820190508181036000830152613530816129fd565b9050919050565b6000602082019050818103600083015261355081612a63565b9050919050565b6000602082019050818103600083015261357081612ae3565b9050919050565b6000602082019050818103600083015261359081612b49565b9050919050565b600060208201905081810360008301526135b081612bc9565b9050919050565b600060208201905081810360008301526135d081612c2f565b9050919050565b600060208201905081810360008301526135f081612c95565b9050919050565b6000602082019050818103600083015261361081612cfb565b9050919050565b6000602082019050818103600083015261363081612da1565b9050919050565b6000602082019050818103600083015261365081612de1565b9050919050565b6000602082019050818103600083015261367081612e47565b9050919050565b6000602082019050818103600083015261369081612ead565b9050919050565b600060208201905081810360008301526136b081612f13565b9050919050565b600060208201905081810360008301526136d081612fb9565b9050919050565b600060208201905081810360008301526136f081613151565b9050919050565b600060208201905061370c60008301846131f7565b92915050565b6000604051905081810181811067ffffffffffffffff8211171561373957613738613acf565b5b8060405250919050565b600067ffffffffffffffff82111561375e5761375d613acf565b5b601f19601f8301169050602081019050919050565b60008190508160005260206000209050919050565b600081519050919050565b600081519050919050565b600082825260208201905092915050565b600082825260208201905092915050565b600081905092915050565b60006137d68261394a565b91506137e18361394a565b9250827fffffffffffffffffffffffffffffffffffffffffffffffffffffffffffffffff0382111561381657613815613a42565b5b828201905092915050565b600061382c8261394a565b91506138378361394a565b92508261384757613846613a71565b5b828204905092915050565b600061385d8261394a565b91506138688361394a565b9250817fffffffffffffffffffffffffffffffffffffffffffffffffffffffffffffffff04831182151516156138a1576138a0613a42565b5b828202905092915050565b60006138b78261394a565b91506138c28361394a565b9250828210156138d5576138d4613a42565b5b828203905092915050565b60006138eb8261392a565b9050919050565b60008115159050919050565b60007fffffffff0000000000000000000000000000000000000000000000000000000082169050919050565b600073ffffffffffffffffffffffffffffffffffffffff82169050919050565b6000819050919050565b82818337600083830152505050565b60005b83811015613981578082015181840152602081019050613966565b83811115613990576000848401525b50505050565b600060028204905060018216806139ae57607f821691505b602082108114156139c2576139c1613aa0565b5b50919050565b60006139d38261394a565b91507fffffffffffffffffffffffffffffffffffffffffffffffffffffffffffffffff821415613a0657613a05613a42565b5b600182019050919050565b6000613a1c8261394a565b9150613a278361394a565b925082613a3757613a36613a71565b5b828206905092915050565b7f4e487b7100000000000000000000000000000000000000000000000000000000600052601160045260246000fd5b7f4e487b7100000000000000000000000000000000000000000000000000000000600052601260045260246000fd5b7f4e487b7100000000000000000000000000000000000000000000000000000000600052602260045260246000fd5b7f4e487b7100000000000000000000000000000000000000000000000000000000600052604160045260246000fd5b6000601f19601f8301169050919050565b613b18816138e0565b8114613b2357600080fd5b50565b613b2f816138f2565b8114613b3a57600080fd5b50565b613b46816138fe565b8114613b5157600080fd5b50565b613b5d8161394a565b8114613b6857600080fd5b5056fe416e204e465420772f20494420257320686173206265656e206d696e74656420746f2025734142434445464748494a4b4c4d4e4f505152535455565758595a6162636465666768696a6b6c6d6e6f707172737475767778797a303132333435363738392b2fa2646970667358221220f7000eb4fee3f450038e27fb32dba31b5709c7534bdaffb0839a68ea45596d0c64736f6c634300080000333c73766720786d6c6e733d27687474703a2f2f7777772e77332e6f72672f323030302f73766727207072657365727665417370656374526174696f3d27784d696e594d696e206d656574272076696577426f783d273020302033353020333530273e3c7374796c653e2e62617365207b2066696c6c3a2077686974653b20666f6e742d66616d696c793a2073657269663b20666f6e742d73697a653a20323470783b207d3c2f7374796c653e3c726563742077696474683d273130302527206865696768743d2731303025272066696c6c3d27272f3e3c7465787420783d273530252720793d273530252720636c6173733d27626173652720646f6d696e616e742d626173656c696e653d276d6964646c652720746578742d616e63686f723d276d6964646c65273e",
  "linkReferences": {},
  "deployedLinkReferences": {}
}